:100000000C94E3070C942A080C942A080C942A08F0
:100010000C942A080C942A080C942A080C942A0898
:100020000C942A080C942A080C94B12E0C94852F59
:100030000C942C260C942A080C942A080C942A0858
:100040000C942A080C942A080C942A080C942A0868
:100050000C942A080C9483260C942A080C942A08E1
:100060000C942A080C942A080C942A080C942A0848
:100070000C942A080C942A080C942A080C942A0838
:100080000C942A080C942A080C942A080C942A0828
:100090000C942A080C942A080C942A080C942A0818
:1000A0000C942A080C942A080C942A08290035007C
:1000B0001E001F0020002100220023002400250034
:1000C000260027002D002E004C004B002B001400B2
:1000D0001A000800150017001C0018000C00120080
:1000E00013002F00300064004E0039000400160099
:1000F000070009000A000B000D000E000F0033007E
:10010000340028002A000000E1001D001B0006004A
:1001100019000500050011001000360037003800F6
:10012000E50000000000E0000000E2002A000000FE
:100130004A6800002C0000004D7400004C71015111
:100140000000010001003A003B003C003D003E0081
:100150003F004000410042004300440045000100D0
:1001600001000100C25CC35CC55CC65CC75CC85CC6
:1001700001004900010046000100010031000100BA
:100180000100C95C01000100010001004A000100FA
:1001900001000100010052000100005C00000100AC
:1001A0000100010001000100010001000100010047
:1001B0000100500051004F0000000000010000004D
:1001C000010001000000010000000100000001002A
:1001D0000000010001000000010001000100010019
:1001E0000100010001000100010001000100010007
:1001F00001000100010001000100010001000100F7
:1002000001000100010001000100010001000100E6
:1002100001000100010001000100010001000100D6
:1002200001000100010001000100010001000100C6
:1002300001000000010001000100010001000100B7
:1002400001000100010001000100010001000000A7
:10025000000001000000010001000000010000009A
:100260000100000001000000010001000000010089
:100270000100010001000100010001000100010076
:100280000100010001000100010001000100010066
:100290000100010001000100010001000100010056
:1002A0000100010001000100010001000100010046
:1002B0000100010001000100010001000100010036
:1002C0000100010001000100000001000100010027
:1002D0000100010001000100010001000100010016
:1002E0000100010000000000010000000100010009
:1002F00000000100000001000000010000000100FA
:100300000100000044454255473A20646973616228
:100310006C65642E0A0044454255473A20656E617B
:10032000626C65642E0A000A002530313662003A9C
:10033000200025303258000A722F632030313233CA
:100340003435363738394142434445460A007267EE
:10035000626C696768742074696D65722064697382
:1003600061626C652E0A007267626C69676874204E
:1003700074696D657220656E61626C65642E0A0039
:100380007267626C6967687420736574206873763D
:10039000205B4E4F454550524F4D5D3A2025752C00
:1003A00025752C25750A007267626C696768742070
:1003B00073657420687376205B454550524F4D5DE0
:1003C0003A2025752C25752C25750A007267626CFC
:1003D00069676874207261696E626F7720736574F3
:1003E000206873763A2025642C25642C25642C25FE
:1003F000750A007267626C6967687420646973616A
:10040000626C65205B454550524F4D5D3A207267E6
:10041000626C696768745F636F6E6669672E656E8C
:1004200061626C65203D2025750A007267626C6907
:1004300067687420656E61626C65205B454550524B
:100440004F4D5D3A207267626C696768745F636FD5
:100450006E6669672E656E61626C65203D2025754C
:100460000A007267626C6967687420746F67676CF2
:1004700065205B454550524F4D5D3A207267626C76
:10048000696768745F636F6E6669672E656E616227
:100490006C65203D2025750A007267626C6967688B
:1004A00074206D6F6465205B4E4F454550524F4D33
:1004B0005D3A2025750A007267626C69676874206E
:1004C0006D6F6465205B454550524F4D5D3A202568
:1004D000750A007267626C696768745F696E697437
:1004E000207267626C696768745F636F6E666967C4
:1004F0002E6D6F6465203D20302E20577269746523
:100500002064656661756C742076616C7565732016
:10051000746F20454550524F4D2E0A007267626C31
:10052000696768745F696E6974206565636F6E667C
:100530006967206973206E6F7420656E61626C65F7
:10054000642E0A007267626C696768745F696E691D
:1005500074207374617274210A007267626C696737
:1005600068745F696E69742063616C6C65642E0ADF
:10057000007267626C696768745F636F6E66696753
:100580002E7370656564203D2025640A00726762E1
:100590006C696768745F636F6E6669672E76616CFD
:1005A000203D2025640A007267626C696768745F89
:1005B000636F6E6669672E736174203D2025640A3F
:1005C000007267626C696768745F636F6E66696703
:1005D0002E687565203D2025640A007267686C6985
:1005E0006768745F636F6E6669672E6D6F64652000
:1005F0003D2025640A007267626C696768745F63F6
:100600006F6E6669672E656E61626C65203D2025A0
:10061000640A007267626C696768745F636F6E6614
:10062000696720454550524F4D3A0A0032190A0079
:10063000047F3F1F643214643214783C1E1E140A77
:10064000052223252628292A2C2D2F303233353612
:10065000383A3B3D3E4042434547494A4C4E505153
:10066000535557595A5C5E6062646668696B6D6F7A
:1006700071737577797B7D7F81838587898A8C8E7D
:1006800090929496989A9C9E9FA1A3A5A7A8AAAC85
:10069000AEAFB1B3B4B6B8B9BBBCBEBFC1C2C3C5BF
:1006A000C6C7C9CACBCCCDCED0D1D2D2D3D4D5D661
:1006B000D7D7D8D9D9DADADBDBDBDCDCDCDCDCDD94
:1006C000DDDDDDDCDCDCDCDCDBDBDBDADAD9D9D878
:1006D000D7D7D6D5D4D3D2D2D1D0CECDCCCBCAC910
:1006E000C7C6C5C3C2C1BFBEBCBBB9B8B6B4B3B13F
:1006F000AFAEACAAA8A7A5A3A19F9E9C9A989694DA
:1007000092908E8C8A89878583817F7D7B797775AE
:1007100073716F6D6B6968666462605E5C5A59578D
:10072000555351504E4C4A4947454342403E3D3B4C
:100730003A3836353332302F2D2C2A2928262523D6
:1007400022FFAA7F554000010101010101010101C1
:100750000202020202020202020303030303030372
:10076000030404040404040405050505050606063F
:100770000606070707070708080808090909090AFC
:100780000A0A0B0B0B0C0C0C0D0D0D0E0E0E0F0FA1
:100790000F1010111111121213131414151516162F
:1007A0001717181819191A1A1B1B1C1D1D1E1E1F9E
:1007B0002020212222232424252626272829292AED
:1007C0002B2C2D2D2E2F3031323233343536373815
:1007D000393A3B3C3D3E3F40414243444546474811
:1007E000494A4C4D4E4F50515354555658595A5BE7
:1007F0005D5E5F616264656668696B6C6D6F707287
:10080000737577787A7B7D7E8082838587888A8CF2
:100810008E8F91939596989A9C9EA0A2A3A5A7A926
:10082000ABADAFB1B3B5B7BABCBEC0C2C4C6C9CB1D
:10083000CDCFD1D4D6D8DBDDDFE2E4E7E9EBEEF0D3
:10084000F3F5F8FAFDFF0A002530325820006B65F9
:1008500079626F6172645F7265706F72743A2000C2
:100860000A0025303258006B6579626F6172645FEF
:100870007365745F6C65643A200064656C5F6B65DA
:10088000795F6269743A2063616E27742064656CD5
:100890003A20253032580A006164645F6B65795FE5
:1008A0006269743A2063616E2774206164643A203F
:1008B000253032580A003F00433E20004C25640A90
:1008C0000074696D65725F72656164333228293A1C
:1008D000202530346C580A006B65796D61705F6358
:1008E0006F6E6669672E6E6B726F3A2025580A002C
:1008F0006B6579626F6172645F69646C653A20252B
:10090000580A006B6579626F6172645F70726F7410
:100910006F636F6C3A2025580A00686F73745F6BC1
:100920006579626F6172645F6C65647328293A202F
:1009300025580A000A092D20537461747573202DFF
:100940000A004743433A20382E332E302041565276
:100950002D4C4942433A20322E302E3020415652FF
:100960005F415243483A20617672350A004F505435
:10097000494F4E533A204C55464120455854524118
:100980004B455920434F4E534F4C4520434F4D4DFF
:10099000414E44204E4B524F20343039360A0042EB
:1009A00055494C443A2022302E392E35302D322DE7
:1009B000673938653165312D646972747922202870
:1009C00032303A34363A30312041756720313020A8
:1009D00032303230290A005649443A2030784645B0
:1009E00045442843617270656C6F732920504944F7
:1009F0003A203078363036302850726F796563741B
:100A00006F416C6963696129205645523A203078FC
:100A1000303030310A000A092D2056657273696F33
:100A20006E202D0A000A092D20436F6E736F6C65CE
:100A3000202D0A4553432F713A09717569740A00D4
:100A40000A092D204D61676963202D0A443A094443
:100A500065627567204D65737361676520546F67C4
:100A6000676C650A583A094D61747269782044656B
:100A7000627567204D6F646520546F67676C6520F1
:100A80002D2053686F77206B65797072657373657D
:100A90007320696E206D6174726978206772696471
:100AA0000A4B3A094B6579626F6172642044656252
:100AB000756720546F67676C65202D2053686F77CA
:100AC000206B65797072657373207265706F7274D4
:100AD0000A4D3A094465627567204D6F757365204C
:100AE000546F67676C650A563A0956657273696F89
:100AF0006E0A533A095374617475730A433A094193
:100B00006374697661746520436F6E736F6C6520E2
:100B10004D6F64650A46312D4631303A0953776985
:100B200074636820746F204C6179657220302D39B0
:100B30002028463130203D204C30290A302D393ACA
:100B40000953776974636820746F204C617965720A
:100B500020302D390A47524156453A095377697476
:100B6000636820746F204C617965722030202861A1
:100B70006C7465726E617465290A423A094A756D32
:100B80007020746F20426F6F746C6F616465720ABD
:100B90004553433A094A756D7020746F20426F6F58
:100BA000746C6F616465722028616C7465726E612B
:100BB0007465290A453A095072696E74204545509A
:100BC000524F4D2053657474696E67730A425350D7
:100BD0004143453A09436C65617220454550524F87
:100BE0004D0A4E3A094E4B524F20546F67676C6561
:100BF0000A000A002575002E6E6B726F3A20000AFB
:100C0000002575002E737761705F6261636B736C92
:100C10006173685F6261636B73706163653A200042
:100C20000A002575002E737761705F6772617665C3
:100C30005F6573633A20000A002575002E6E6F5FB2
:100C40006775693A20000A002575002E7377617078
:100C50005F72616C745F726775693A20000A0025E3
:100C600075002E737761705F6C616C745F6C677573
:100C7000693A20000A002575002E737761705F7253
:100C800063746C5F726775693A20000A002575000D
:100C90002E737761705F6C63746C5F6C6775693A13
:100CA00020000A002575002E636170736C6F636B02
:100CB0005F746F5F636F6E74726F6C3A20000A002E
:100CC0002575002E737761705F636F6E74726F6C41
:100CD0005F636170736C6F636B3A20000A002530AC
:100CE0003258006B65796D61705F636F6E6669671E
:100CF0002E7261773A20000A002575002E6D6F75FF
:100D000073653A20000A002575002E6B6579626FC5
:100D10006172643A20000A002575002E6D617472BC
:100D200069783A20000A002575002E656E61626CB4
:100D3000653A20000A002530325800646562756704
:100D40005F636F6E6669672E7261773A20000A00F2
:100D500025750064656661756C745F6C6179657298
:100D60003A20003F004E4B524F3A206F66660A0011
:100D70004E4B524F3A206F6E0A000A6D6F757365C5
:100D80003A206F66660A000A6D6F7573653A206FC8
:100D90006E0A000A6B6579626F6172643A206F6651
:100DA000660A000A6B6579626F6172643A206F6E41
:100DB0000A000A6D61747269783A206F66660A00EB
:100DC0000A6D61747269783A206F6E0A000A646570
:100DD0006275673A206F66660A000A646562756725
:100DE0003A206F6E0A000A0A4A756D70696E6720B4
:100DF000746F20626F6F746C6F616465722E2E2E3B
:100E00002000433E2000436C656172696E67204597
:100E10004550524F4D0A006565636F6E6669673ACB
:100E20000A005B735D004B6579626F6172642073C9
:100E3000746172742E0A005B575D005B535D005B4A
:100E4000525D005B445D005B435D000403300000C5
:100E5000001E03500072006F00790065006300748B
:100E6000006F0041006C00690063006900610000D0
:100E7000001203430061007200700065006C006F97
:100E800000730000000403090409025B0003010071
:100E9000A0FA090400000103010100092111010069
:100EA000012240000705810308000A09040100012E
:100EB00003000000092111010001226D00070582D5
:100EC0000320000A090402000203000000092111A6
:100ED000010001222200070583032000010705030A
:100EE000032000011201100100000008EDFE606007
:100EF0000100010203010631FF0974A10109751502
:100F00000026FF009520750881020976150026FF4E
:100F100000952075089102C005010980A101850393
:100F200019012AB700150126B70095017510810037
:100F3000C0050C0901A101850419012AA0021501AF
:100F400026A002950175108100C005010906A101C6
:100F50008505050719E029E71500250195087501A4
:100F600081020507190029EF1500250195F075018B
:100F70008102050819012905950575019102950160
:100F800075039101C005010906A101050719E029B2
:100F9000E715002501950875018102950175088105
:100FA000010507190029FF150026FF0095067508A1
:100FB0008100050819012905950575019102950122
:100FC00075039101C00011241FBECFEFDAE0DEBF30
:100FD000CDBF04B603FE27C0809152039091530306
:100FE000A0915403B09155038730904BA740B04B6C
:100FF000D1F41092520310925303109254031092A2
:10100000550314BE84B7877F84BF0FB6F894A895A4
:1010100080916000886180936000109260000FBE34
:10102000E0E0F8E3099511E0A0E0B1E0E2E8FAE6DB
:1010300002C005900D92A43DB107D9F723E0A4EDBD
:10104000B1E001C01D92A235B207E1F70E94D72B93
:101050000C94C4340C940000FF93EF93E091D401FE
:10106000F091D501309709F00995EF91FF9108951E
:10107000FC018591803011F0EFDFFBCF0895FF2751
:10108000E0E230E247FF0CC0419597FF09C0EDE276
:101090006095709580959095611D711D811D911DC4
:1010A00027FF02C0219530E350E2AA27660F771F81
:1010B000881F991FAA1FA41710F0A41B63955A95A7
:1010C000A9F7AA3008F0A95FA05DAF93F395611569
:1010D00071058105910541F7ED3211F4EF93F39518
:1010E000F21718F43F93F395FBCF8F91B5DFFA9584
:1010F000E1F70895E991F9918591803021F08532E9
:1011000019F0AADFF9CF089520E0E89455915532FF
:10111000C1F3503311F4689455915A3348F4505345
:1011200090F3220F022E220F220F200D250FF4CF55
:101130000EF4219589919991533619F3533729F17A
:10114000533559F1BC0188279927E8945C3621F47E
:101150008991999168945591543639F446EF7EF00F
:1011600077FF0DC08FEF9FEF0AC055374AE039F087
:10117000583540E121F0523642E009F00895FF93DE
:10118000EF937DDFEF91FF91B7CFFF93EF93FC01DA
:1011900081918030B9F360DFFBCFFF93EF9368DF7D
:1011A000F1CFDF93CF93CDB7DEB72596A3DFCF91F5
:1011B000DF9108950895089581E0089580FF0BC0A0
:1011C000529A5A9881FF09C0519A599882FF07C0D4
:1011D000539A5B9808955298F4CF5198F6CF53984C
:1011E000F8CF81E008950C94DC0808950C94F5087C
:1011F0001F93CF93DF9300D000D00F92CDB7DEB70F
:1012000049835A836B8330913E0289819A813111DF
:101210001DC06623B9F02223A9F00E94E122182FF5
:10122000682F89819A810E948D2269817A81812F1C
:101230000F900F900F900F900F90DF91CF911F9113
:101240000C94D7090E94B922182FEFCF0E94E122F7
:1012500069817A81EDCFFC01262F40815181628125
:10126000738184810C94F808CF93DF93EC0160E0E4
:101270000E942B09BE01DF91CF910C94F6080E94C9
:10128000CD260E945524811102C00E94F2240C94A4
:10129000D90B0C94DB0B0C94DE0881E008950C94C0
:1012A0004D09CF93C82F0E944B098C2FCF910C94DE
:1012B0004F0908950E94F71D0E9459092FEF84E3FA
:1012C0009CE0215080409040E1F700C000000C9469
:1012D000A7260F931F93CF93DF938C0161E00E94A9
:1012E0002B09EC010E942E16882329F0F801828137
:1012F00081110E944216B801CE010E94F308882392
:10130000B9F1B801CE010E944317882389F1B801D1
:10131000CE010E948417882359F1B801CE010E94A2
:10132000A718882329F1B801CE010E9492158823BD
:10133000F9F0F8018281882341F0C130FCE5DF0734
:10134000E9F050F4C115DC4589F0C801DF91CF9177
:101350001F910F910C94F108C63DFCE5DF0701F1E8
:10136000CE3DDC4591F70E94F22402C00E945A094A
:1013700080E0DF91CF911F910F9108959091D60257
:10138000892F8E7F90FF81608093D60280FF05C0F9
:1013900086E193E00E943808EBCF84E093E0FACF37
:1013A0000E943816E5CF90E080E008950895972FC9
:1013B00070E02FE0929F600D711D1124FB019BE4F2
:1013C000899FE00DF11D1124EE0FFF1FE455FF4F23
:1013D000859194910895FC01EE0FFF1FE95DFC4F8C
:1013E000859194910895CF93DF930E94D7090E942D
:1013F000FF0AEC01811520E5920708F041C0811534
:1014000030E4930708F0B4C0803E910518F5803CA5
:10141000910508F09DC0883A910570F4853A9105D0
:1014200008F08EC081309105F9F00097E9F004973B
:10143000D8F4D0E0C0E018C08F3B9105D0F7C85A6F
:10144000D0E0CC0FDD1FCD5DDE4F0990D881C02DDF
:10145000D4640AC08115904258F4C11581E0D807C0
:1014600018F4C83ED10528F7CE01DF91CF91089539
:10147000C11590E3D90708F071C0CE019F706AC012
:10148000811525E5920758F5811534E5930708F095
:101490009EC0811542E5940750F4C11581E5D80737
:1014A00008F469C0DC2FCC27C16FD06ADDCF982F3C
:1014B000969596959E0123703327C115D34508F064
:1014C00077C0C1E0D0E002C0CC0FDD1F2A95E2F763
:1014D00020E2929FC0011124C82BD92B67C0C115EF
:1014E00089E5D807A8F4C11598E5D90708F074C0B4
:1014F000C11526E5D20708F09CCF8C2F0E94960BD1
:10150000C82FD0E0DC2FCC27CC27DF71D062ACCF46
:10151000C1153AE5D30708F464C0CE019056811591
:10152000904208F086CF8D2F8F710E94960B90E02D
:10153000982F882788279F719C012C2BE901E6CFE3
:10154000C55AD0E0CF5ADE4FC881D0E0D0648CCFEE
:10155000805C91090E94EB09EC0186CFCE019927AE
:10156000D3FF03C0EC01D86C7FCFEC01D06C7CCFF3
:10157000DF70D06A79CFCE01E4E096958795EA9541
:10158000E1F783702C2F26952695237090E2299FF2
:1015900090011124382B8C2F8370C1E0D0E002C061
:1015A000CC0FDD1F8A95E2F7C22BD32BDC685CCF12
:1015B000C1E0D0E002C0CC0FDD1F2A95E2F730E297
:1015C000939FC0011124C82BD92BDA684DCFD82F97
:1015D000CC27C46FD06A48CFDC2FCC27C06FD06A2D
:1015E00043CF8C2F8F700E94960B34E0D695C79511
:1015F0003A95E1F7CF709C2FEC01D06935CF823856
:101600009105B1F1B0F48133910509F475C048F446
:101610008932910509F469C08A32910509F473C0D1
:1016200008958533910509F459C08933910501F175
:101630000895833E9105A9F138F4803E9105F9F0B3
:10164000823E910549F10895863E9105A9F1873EB4
:101650009105C9F1843E910519F52091440321FFBC
:101660001FC08091430384FD14C087EE90E008956D
:10167000209143032370A1F080EE90E00895209123
:10168000430320FD47C03091440330FF09C024FFCD
:1016900044C090E080E004C02091430322FDF7CFD6
:1016A00008952091430322FD3BC03091440330FD57
:1016B000E3CF24FFF5CFEDCF2091430323FFF0CFFD
:1016C00024FDE7CFD2CF2091430323FD2CC03091DE
:1016D000440331FFEECF84EE90E008952091430360
:1016E00025FFDECF89E290E008952091430325FF96
:1016F000D7CF85E390E008952091430326FFD0CF14
:101700008AE290E008952091430326FFC9CF81E348
:1017100090E0089589E390E0089583EE90E00895C5
:1017200082EE90E0089586EE90E008959091430354
:1017300092FF06C0282F28712830F9F4877F846033
:1017400093FF06C0282F28712831F1F4877E846129
:101750002091440320FF06C0382F38713830D9F467
:10176000877F816021FF06C0282F28712831D1F49E
:10177000877E816194FD877E0895282F247124300F
:10178000F9F68B7F8860DCCF282F2471243101F794
:101790008B7E8861DDCF382F3171313019F78E7F24
:1017A0008860E0CF282F2171213121F78E7E88615A
:1017B000E1CF0C94DA080C94DB08E82FF0E0EE0F90
:1017C000FF1FE75FFC4F808191810895CF92DF92E8
:1017D000EF92FF920F931F93CF93DF9387E393E0F2
:1017E0000E94380889E0E82E83E0F82ED0E0C0E0BF
:1017F00092E3C92E93E0D92E09E213E0DF93CF9351
:10180000DF92CF920E94D1088FE293E00E943808C5
:10181000F701819191917F010E9442249F938F93C0
:101820001F930F930E94D10887E293E00E9438082B
:1018300021968DB79EB708960FB6F8949EBF0FBE3F
:101840008DBFC530D105D1F6DF91CF911F910F919A
:10185000FF90EF90DF90CF90089580EA8A95F1F79E
:101860000895CF93DF93A3E6B1E048E651E0C1E0ED
:10187000D0E08D91E82FE295EF70F0E061A18F70DC
:101880009E0101C0220F8A95EAF7922F9095962328
:1018900091A382A1822B82A34A175B0751F7A4E58B
:1018A000B1E061E070E08D91E82FE295EF70F0E03B
:1018B00041A18F709B0101C0220F8A95EAF7922FF8
:1018C0009095942391A382A1822B82A381E0A336D9
:1018D000B80749F7109200031092FF0210920A0312
:1018E00010920903109202031092010310920C034C
:1018F00010920B03109204031092030310920E0334
:1019000010920D031092060310920503109210031B
:1019100010920F0310920803109207031092120303
:101920001092110385E00E94200DDF91CF910C945D
:101930003F098F929F92AF92BF92CF92DF92EF9228
:10194000FF920F931F93CF93DF9383E6E82E81E0FE
:10195000F82E0FEF12E0912CAA24A394B12CF701DA
:1019600081917F01C82FC295CF70D0E099A18F706F
:10197000650101C0CC0C8A95EAF7892F8C2989A3CF
:101980008AA18C2C809488218AA30E942D0CE4E5E6
:10199000F1E050E040E030E020E06191A62FA29518
:1019A000AF70B0E090968C9190E06F7002C095950A
:1019B00087956A95E2F780FD3EC0C501042E02C0FE
:1019C000880F991F0A94E2F7282B392B4F5F5F4F3E
:1019D0004F30510511F789A1882289A28AA1C82A0E
:1019E000CAA2F801808191812817390739F1318322
:1019F000208381E0982A0E5F1F4FF8E6EF16F1E092
:101A0000FF0609F0ACCF292D45E069E073E08FEFC8
:101A100092E00E94210D0E944909892DDF91CF910A
:101A20001F910F91FF90EF90DF90CF90BF90AF90FC
:101A30009F908F90089590E080E0C6CF80E0DACF4D
:101A40000895FF920F931F93CF93DF93F82E092FE2
:101A5000162FD72FC42F222349F081E08093D8017D
:101A60000E945C269093D7018093D6018091D80183
:101A70008823A1F08091D6019091D7010E9474260D
:101A8000069760F0EF2DF02FA12FBD2F90E080E0A2
:101A9000D0E08C179D0744F01092D801DF91CF91D0
:101AA0001F910F91FF900895219131912D933D93B6
:101AB0000196EFCFAF92BF92CF92DF92FF920F933A
:101AC0001F93CF93DF93362F472FE82FF0E0EA5B89
:101AD000F84F71110DC06491762F862FDF91CF9151
:101AE0001F910F91FF90DF90CF90BF90AF9008951E
:101AF000C72FD0E02491F22E022F10E056E0659F10
:101B0000C0011124EFEFF0E0BF010E948233832F68
:101B100090E0880F991F35E5369FD001379FB00DB3
:101B200011248A1B9B0B982F990F980F6F01CC1AC9
:101B3000DD0AC09ED001C19EB00DD09EB00D112413
:101B40008B2F949FA0011124452F55276F01C41A94
:101B5000D50AC09EA001C19E500DD09E500D1124EB
:101B60005F01A91AB108AC9E6001AD9ED00CBC9E6D
:101B7000D00C1124CD2CDD24EC19FD09E09FE001EF
:101B8000E19FD00DF09FD00D1124ED2F6230710533
:101B9000A1F048F46115710569F06130710589F0B3
:101BA000EB2F852F07C06430710571F088F0663027
:101BB0007105B1F76E2F722F91CFE22F2B2F8D2F42
:101BC000F9CFE22F252FF6CFEB2F822F2D2FF2CF3B
:101BD0002B2F8F2DE52FEECF08950F931F93CF93CB
:101BE000DF93EC01162F042F0E942E16882341F05C
:101BF000602F812FDF91CF911F910F910C9475165B
:101C0000FE018491DF91CF911F910F910895CF93A1
:101C1000DF93762FE901682F842F0E945A0D798374
:101C200068838A83DF91CF91089580911303982F61
:101C30009E7F29F481708260809313030895863516
:101C4000E8F381708465F8CF88E090E00C9421344B
:101C5000CF92DF92EF92FF926B017C010E94150EF2
:101C6000B701A60188E090E0FF90EF90DF90CF9061
:101C70000C943F34E3E1F3E083E0808311828FEF43
:101C800082838383148260817181828193810C9429
:101C9000280E8091D60280FF76C083E196E09F9364
:101CA0008F930E94D1088091D6020F900F9080FFF1
:101CB0006AC08091130381701F928F9386EF95E025
:101CC0009F938F930E94D1088091D6020F900F901E
:101CD0000F900F9080FF57C08091130386951F923D
:101CE0008F938BED95E09F938F930E94D108809105
:101CF000D6020F900F900F900F9080FF44C08091FC
:101D000014031F928F9381EC95E09F938F930E9411
:101D1000D1088091D6020F900F900F900F9080FF06
:101D200032C0809115031F928F9387EA95E09F93AD
:101D30008F930E94D1088091D6020F900F900F9040
:101D40000F9080FF20C0809116031F928F938DE823
:101D500095E09F938F930E94D1088091D6020F90B7
:101D60000F900F900F9080FF0EC0809117031F926D
:101D70008F9381E795E09F938F930E94D1080F90F6
:101D80000F900F900F9008958091130380FF02C071
:101D90008695089580E0089580911703833018F4A4
:101DA0008F5F8093170360911303709114038091E8
:101DB0001503909116030C94280E80911703882325
:101DC00019F08150809317036091130370911403ED
:101DD00080911503909116030C94280E70E00C94DA
:101DE0000216609107018091130380FF0AC0809161
:101DF000060123E0829FC0011124885E9C4F0C9451
:101E0000EE0E809108019091090123E0829FF0017C
:101E10001124E85EFC4F891750F71182108212825C
:101E20008F5F3396F8CF9091130390FF14C0909179
:101E300008012091090133E0939FF0011124E85E2D
:101E4000FC4F921710F00C94F10E81836083428353
:101E50009F5F3396F6CF0895CF93DF9300D00F9214
:101E6000CDB7DEB79091130390FF0AC09E012F5F9C
:101E70003F4F0E94070E4B8169818A810E94130F98
:101E80000F900F900F90DF91CF910895CF93DF9334
:101E9000EC01EC81F0E0EF5BF94F4491E3E1F3E01A
:101EA000628181810E942C0F8C818F5F8C83DF91F6
:101EB000CF910895CF93DF93EC01E3E1F3E0438109
:101EC00062818C810E942C0F8C818F5F8C83DF91CB
:101ED000CF9108950F931F93CF93DF9300D00F926C
:101EE000CDB7DEB78C018091D90181110AC09E0166
:101EF0002F5F3F4F4FEF6FEF0E94070E8A81809355
:101F0000D901F8016481613069F08091D90140E024
:101F1000662361F040E0623011F44091D90180E025
:101F200060E004C06091D90140E080E00E94130F9E
:101F3000F801848190E0019663E070E00E9496339E
:101F400084830F900F900F90DF91CF911F910F918D
:101F500008954F925F926F927F928F929F92AF926D
:101F6000BF92CF92DF92EF92FF920F931F93CF9386
:101F7000DF9300D00F92CDB7DEB7182FD62E042FE7
:101F8000722E9091130390FF46C0E92FE695AE2F75
:101F9000B0E0A859BE4F8C91809324029E7F92306E
:101FA00009F04DC09E012F5F3F4F812F0E94070E09
:101FB0004B8169818A810E94130F10931403D09280
:101FC000150300931603772009F49CC06091130356
:101FD0007091140380911503909116030E94280EAE
:101FE0008091D60280FF17C0809116031F928F93B5
:101FF000809115031F928F93809114031F928F93EA
:1020000087EA93E09F938F930E94D1080FB6F894CC
:10201000DEBF0FBECDBF0F900F900F90DF91CF911D
:102020001F910F91FF90EF90DF90CF90BF90AF90F6
:102030009F908F907F906F905F904F900895823027
:1020400019F400911603B9CF863019F410911403D6
:10205000B4CF8930D9F3893109F0AFCFE9518E2F50
:102060008170682E8E2F80958170C82EE695F0E0E5
:10207000EF5BF84FE590F490412CFF249CECA92EE7
:1020800093E0B92E60910A01461618F00E94F10EF5
:1020900094CF842C912C8E9CC0018F9C900D9E9C83
:1020A000900D112470E00E948233512E611028C0DF
:1020B000560E8091D60280FF11C0FF92EF921F92C0
:1020C000CF921F925F921F924F92BF92AF920E9447
:1020D000D1080FB6F894DEBF0FBECDBF2091080126
:1020E000820E911C9401220F331F280D391D285E8A
:1020F0003C4F402F6D2D852D0E94070E4394C2CF7B
:10210000561AD7CF8091D60280FF85CF1F920F93AA
:102110001F92DF921F921F9380E893E073CFE3E159
:10212000F3E09181282F4381628188E0890F0C942C
:10213000A90F81E00C948F10E3E1F3E09181282F47
:102140004381628188EF890F0C94A90F81E00C9480
:102150009C10E3E1F3E0628128E0620F08F46FEF86
:10216000282F438181810C94A90F81E00C94A91040
:10217000E3E1F3E0628128E0621B08F460E0282FCD
:10218000438181810C94A90F81E00C94B810E3E1A4
:10219000F3E0438128E0420F08F44FEF282F6281DB
:1021A00081810C94A90F81E00C94C710E3E1F3E066
:1021B000438128E0421B08F440E0282F628181819E
:1021C0000C94A90F81E00C94D61020E00C94A90F78
:1021D000EF92FF921F93CF93DF93EC0110E0EE2478
:1021E000EA94F12C60910A01161770F00E94F10E2A
:1021F0009A818C8190FF27C08F5F8C83DF91CF9174
:102200001F91FF90EF90089520910801422F410FF8
:102210005527551FCA019A01220F331F280F391F56
:10222000285E3C4F70E0C7010E949633962F8C8148
:102230004091160360911503199F800D11240E948F
:10224000070E1F5FCFCF8150D8CFAF92BF92CF92F2
:10225000DF92EF92FF920F931F93CF93DF93FC01D6
:1022600082810FEF80FF01E010E04DE0A42E80910D
:102270000A011817C8F00E94F10E8091DB010130AD
:1022800009F055C0811102C080910A0181508093EC
:10229000DB01DF91CF911F910F91FF90EF90DF90C5
:1022A000CF90BF90AF900895C0910801C12ED12C5E
:1022B000CC0DDD2DD11DCE01880F991FC80FD91F60
:1022C000C85EDC4F198218821A8234E0E32EF12CAA
:1022D000B12C8091DB018B0D8E301CF16A2D0E9498
:1022E0007433892F082E000C990BC816D90691F467
:1022F000809116038E9DA0018F9D500D1124559540
:102300004795559547959E0160911503809114035B
:102310000E94070EB00EF1E0EF1AF108D1F61F5F30
:10232000A6CF87FFDFCF90910A01890FDBCF90E026
:10233000019660910A0170E00E949633A8CF0F9336
:102340001F93CF93DF93809108019091090123E0BF
:10235000829FF0011124E85EFC4F891740F1C0E034
:10236000D3E060910A01C61740F10E94F10E20915E
:1023700004018091DA01820F8093DA0190910501C6
:10238000920F90930501191654F4082E000C990B26
:1023900040910A014150550B841795071CF0219577
:1023A00020930401DF91CF911F910F910895118225
:1023B000108212828F5F3396D0CF0C2F10E070E026
:1023C000C8010E94963320910801820F482F50E0E7
:1023D0002091DA01022E000C330B02171307BCF018
:1023E00020910501022E000C330B201731077CF0E1
:1023F0008D9F90011124285E3C4F409116036091FF
:102400001503809114030E94070ECF5FAACFFA0133
:10241000EE0FFF1FE40FF51FE85EFC4F11821082E4
:102420001282F3CF0F931F93CF93DF938C01FC01A4
:102430008481958101968170992795838483C0E07A
:10244000D5E580910A01C81730F0DF91CF911F9137
:102450000F910C94F10E20910801422F4C0F55273B
:10246000551FCA019A01220F331F280F391F285EFA
:102470003C4F8C2F8695F80144815581840F952F10
:10248000911D817040911603609115038D9F802DE1
:1024900011240E94070ECF5FD4CF0F931F93CF93C9
:1024A000DF93EC0110E000E090910A019017110613
:1024B00009F06CF40E94F10E8C8190E0019681701D
:1024C00099278C83DF91CF911F910F9108952091CF
:1024D0000801A801420F511D9A01220F331F240F3A
:1024E000351F285E3C4F4C81609115038091140389
:1024F00096959017110651F04CF0442349F0409105
:1025000016030E94070E0F5F1F4FCECF4423B9F36F
:1025100040E0F7CF8F929F92AF92BF92CF92DF921F
:10252000EF92FF920F931F93CF93DF93FC01B28042
:10253000948081E0848300E015E05BE4A52E88248C
:102540008394EE24EA94F12C7BE4C72ED12C809165
:102550000A01081770F0DF91CF911F910F91FF9042
:10256000EF90DF90CF90BF90AF909F908F900C94A2
:10257000F10EC02FD0E01C9FF0011D9FF00D112423
:10258000E452FE4F91101CC0138212822091080168
:10259000CE01820F911D9C01220F331F280F391F7E
:1025A000285E3C4F1C9FF0011D9FF00D1124E4524A
:1025B000FE4F4281618180810E94070E0F5FC7CF6D
:1025C0002381222379F12150238334818A2D821B98
:1025D000311101C0822F1C9FF0011D9FF00D1124AD
:1025E000E452FE4F90911603899FC0011124B60159
:1025F0000E9482336283211104C0332311F01482BC
:10260000A38222E02B1510F21C9FF0011D9FF00DFC
:102610001124E452FE4F80911403808380911503AE
:102620008183B4CF0E94FC33823091400CF0AECF56
:1026300082E08B1530F50E94FC33B7010E9496337F
:102640001C9FF0011D9FF00D1124E452FE4F80836A
:1026500022E02B15C8F40E94FC3320911503269527
:10266000622F70E00E949633280F1C9FF0011D9F7F
:10267000F00D1124E452FE4F21831282A382848242
:1026800085CF80911403DCCF20911503EECF6091AC
:102690001303669570E04BE050E08BE091E00E9400
:1026A0000C34892B19F481E0809325020E945C266A
:1026B00090931E0280931D028091D60280FF08C075
:1026C00087E693E09F938F930E94D1080F900F901D
:1026D0000895109225028091D60280FF08C08EE4F2
:1026E00093E09F938F930E94D1080F900F900895CD
:1026F0009091130390FF54C0917081113BC0926080
:10270000909313036623E9F160911303709114030E
:1027100080911503909116030E94280E8091D60295
:1027200080FF0FC08091130386951F928F9387EBD4
:1027300094E09F938F930E94D1080F900F900F9079
:102740000F9060911303669570E04BE050E08BE0D2
:1027500091E00E940C34892B01F10E94691381E001
:102760008093200240911603609115038091140319
:102770000C94E5108B3210F09465C2CF880F982B23
:10278000BFCF8091D60280FFDCCF80911303869566
:102790001F928F9389E994E0CCCF0E944713DFCF3B
:1027A0000895682F90911303969581E0890F8B32DD
:1027B00008F081E00C94781381E00C94D113682F19
:1027C0009091130396958FEF890F09F48AE20C9488
:1027D000781381E00C94DF1361E00C9478138091FE
:1027E00013038160809313038091D60280FF0DC094
:1027F0001F9281E08F938BE294E09F938F930E94CE
:10280000D1080F900F900F900F9080911303869531
:102810000C94EC1360E00C947813809123028111E6
:1028200060C08091D60280FF14C08AE595E09F9336
:102830008F930E94D1088091D6020F900F9080FF55
:1028400008C084E495E09F938F930E94D1080F9075
:102850000F900E945524811110C08091D60280FFF4
:1028600008C08CE195E09F938F930E94D1080F9050
:102870000F900E94F2240E943A0E0E94240E609350
:1028800013037093140380931503909316036E7FC4
:10289000C1F48091D60280FF08C083ED94E09F933D
:1028A0008F930E94D1080F900F900E943A0E0E94C1
:1028B000240E609313037093140380931503909375
:1028C00016030E94150E0E94490E10922502809157
:1028D000130380FF03C086950E940A1481E0809351
:1028E00023020895809113038E7F809313036091D8
:1028F00013037091140380911503909116030E94A5
:10290000280E8091D60280FF0FC080911303817042
:102910001F928F9383EF93E09F938F930E94D10830
:102920000F900F900F900F900E9469132FEF80E788
:1029300092E0215080409040E1F700C000000C94EC
:10294000F10E8091D60280FF10C080911303809514
:1029500081701F928F9382E694E09F938F930E94E1
:10296000D1080F900F900F900F908091130380FD6E
:102970000C9472140C94EF130F931F93CF93DF9367
:1029800080912502882309F4AEC0909124028091A1
:1029900013038695891B80931F029230E1F590E026
:1029A00044E661E0835C994F0E94ED0DC82FD0E0B2
:1029B00006E41FE080912002882389F01092200213
:1029C0000E945C269E0120953095820F931F909364
:1029D0001E0280931D021092220210922102809109
:1029E0001D0290911E020E9474268C179D0708F408
:1029F0007AC080911D0290911E028C0F9D1F9093B2
:102A00001E0280931D028DE192E0F801DF91CF91CB
:102A10001F910F910994963061F490E044E665E0CF
:102A2000865C994F0E94ED0DC82FD0E00AE51FE0AB
:102A3000C1CF993069F4869590E044E661E0895C05
:102A4000994F0E94ED0DC82FD0E008EE10E1B2CFF3
:102A50009F3069F4869590E048EC61E08C5C994F7A
:102A60000E94ED0DC82FD0E005E211E1A3CF953112
:102A700061F490E044E665E08F5C994F0E94ED0DB3
:102A8000C82FD0E00FE911E195CFC8EED3E002E105
:102A900012E1983109F48ECF933239F4EFE2F6E087
:102AA000C591D4910AE61FE085CFC4EFD1E00DE4D3
:102AB00012E1943209F47ECFC0EDD7E00CEE1DE0B8
:102AC000953209F077CF63E00E946833892F90E058
:102AD00042E365E0845D994F0E94ED0DC82FD0E080
:102AE0000AE812E167CFDF91CF911F910F9108950E
:102AF000FA01811101C0FB010994CF93DF93C82F24
:102B0000D62F0E94C40E8C1740F00E94C40E8D1761
:102B100020F4DF91CF910C94DC138C2FDF91CF91B7
:102B20000C94EC130F931F93CF938C01FB01C28184
:102B3000CC2309F465C00E9476238272F801E25C1E
:102B4000FC45E431F10538F4EA53FB4C0C94AA330C
:102B50000E94A114C0E08C2FCF911F910F91089576
:102B600049EE53E16CED73E10E947815F3CF4CED23
:102B700053E169EE73E1F8CF46EA50E169E970E1AB
:102B8000F3CF49E950E166EA70E1EECF44EC50E161
:102B900065EB70E1E9CF45EB50E164EC70E1E4CF27
:102BA00042EE50E163ED70E1DFCF43ED50E162EEC4
:102BB00070E1DACF4DED5EE06CEC7EE0D5CF4CEC11
:102BC0005EE06DED7EE0D0CF81E00E94EC13C2CFDD
:102BD00065E082E00E947D15BDCF68E086E0FACF17
:102BE0006EE089E0F7CF64E18FE0F4CF67E185E143
:102BF000F1CF88E1EACF62E289E1ECCF83E2E5CF71
:102C0000C1E0A9CF6E9A4EB14F7B5EB15064EFB771
:102C1000F8949B01220F331F260F371F280F391FEF
:102C20002817390741F4EFBF8FE594E00197F1F7DA
:102C300000C000000895DC016D91CD0178E05EB91F
:102C4000000000C067FF4EB9660F000000C000C062
:102C500000C04EB900C07A9591F7E2CF87E190E0CD
:102C60000E94193491E0813009F090E0892F089595
:102C70000E942E1660E0811101C061E087E190E0C2
:102C80000C942D3480912802883C18F48E5F809338
:102C90002802089580912602909127020E947426AE
:102CA000853F914030F48091260290912702892B34
:102CB000D9F480912802882319F08150809328024A
:102CC00080912802853618F08150809328028091E7
:102CD0002802873918F08250809328020E945C26CF
:102CE000909327028093260208957F928F929F925D
:102CF000AF92BF92CF92DF92EF92FF920F931F930A
:102D0000CF93DF93782E082F10E0C62FD0E0BE01BE
:102D10000D2E000C880B990B0E9446326B017C0132
:102D20006091280270E090E080E00E94443220E050
:102D300030E048E453E40E94A3314B015C01BE0142
:102D4000601B710B072E000C880B990B0E944632FA
:102D50009B01AC01C501B4010E94D7329B01AC01BB
:102D6000C701B6010E9436316B017C01B801110F19
:102D7000880B990B0E944632A70196010E94D2321D
:102D800018162CF0C701B6010E941532762E872D39
:102D9000DF91CF911F910F91FF90EF90DF90CF9037
:102DA000BF90AF909F908F907F9008950F931F9347
:102DB000CF93DF93C62FD42F022FFC01828188236B
:102DC000C9F060932B020E945C2690932A028093A4
:102DD000290280E28C0F883008F050C0C77081E073
:102DE00001C0880FCA95EAF7DF91CF911F910F912B
:102DF0000C948A1B10912B02161335C08091290266
:102E000090912A020E947426883C910560F5C0E2E8
:102E1000CD0F1D17B9F080E2810F883040F4177094
:102E200081E001C0880F1A95EAF70E94911BC83013
:102E300048F481E09D2F977001C0880F9A95EAF7BA
:102E40000E948A1B802F0E94771BC830B8F4D7706D
:102E500081E001C0880FDA95EAF7DF91CF911F91E9
:102E60000F910C94911B80E28C0F883038F4C7705E
:102E700081E001C0880FCA95EAF7EFCFDF91CF91CB
:102E80001F910F9108959C01CB01233F4CE534071E
:102E900031F190F4283DFCE53F07E9F0293D4CE590
:102EA000340769F1273D3C4579F426E241EE61EEB5
:102EB0000E94D61680E00895253FFCE53F07B9F053
:102EC00090F0263F3C45B9F0FC0182818823D1F087
:102ED00010922B02089527E245EE65EEE9CF26E237
:102EE00041EE60EEE5CF27E245EE64EEE1CF26E26B
:102EF00041EE62EEDDCF27E245EE66EED9CF28E265
:102F000041E0EBCF81E00895CF93DF93EC01FB012B
:102F10008281882309F419C1C230FCE5DF07C0F1C2
:102F2000C6319CE5D90730F09E012A5F3C45293027
:102F3000310570F50E946824909344038093430305
:102F4000C031ECE5DE0709F4CFC008F05BC0C83043
:102F50008CE5D80709F4B6C088F5C430ECE5DE0787
:102F600009F4A8C0C0F4C2308CE5D80709F49CC0AD
:102F7000809143038260C330DC4509F498C080919E
:102F80004303909144030E9476240E94F71D80E041
:102F9000DF91CF910895809143038061C630ECE5C5
:102FA000DE0709F484C0809143038860C730DC45A4
:102FB00008F47DC080914303806279C0CC308CE5F9
:102FC000D80709F489C070F4809143038C60CA303B
:102FD000ECE5DE0709F46BC008F478C08091430388
:102FE0008E7F65C0CE308CE5D80709F479C080911A
:102FF00043038B7FCF30DC4508F459C080914303F5
:103000008F7E55C0CB3FECE5DE0709F457C030F5A5
:10301000C3318CE5D80709F46FC078F4C131ECE511
:10302000DE0709F465C0C231DC4509F0A8CF0E9473
:10303000F71D809143038F773AC0C5318CE5D807DF
:1030400009F462C008F476C0809144038160CA3FED
:10305000DC4509F094CF8093440391CFCF3FFCE54A
:10306000DF0709F44DC088F4809144038D7FCD3F84
:103070009CE5D90781F3809144038E7FCE3FDC45E8
:1030800050F3809144038360E6CFC130FDE5DF0754
:1030900009F459C008F444C080E0C230DD4509F0AD
:1030A0006ECF0E94F4246BCF8091430381608093A4
:1030B000430365CF809143038460F9CF809144033B
:1030C0008260C9CF809143038064F1CF0E94F71DD5
:1030D000809143038068EBCF809143038D7FE7CFDE
:1030E00080914303877FE3CF809143038F7DDFCFC0
:1030F000809143038F7BDBCF80914303837FD7CFC6
:10310000809144038C7FA7CF8091430382FB992752
:1031100090F921E0922790FB82F990FB83F9C7CFC9
:1031200080914403982F909591708E7F892B90FB0E
:1031300081F991CF0E94F71D90914303892F97FB4E
:1031400087F98058B4CF81E0ACCF81E021CFCF9315
:10315000DF93EB0186319C4511F50E9476239A811D
:10316000992399F08A7A91E009F490E090932C02E7
:10317000811109C089E20E9451230E94C22380E08C
:10318000DF91CF91089585E3F6CF80912C028111D4
:1031900004C089E20E945823F0CF85E3FBCF81E091
:1031A000EFCF90933202809331020895E091310283
:1031B000F0913202309721F00190F081E02D0994D6
:1031C00080E00895EF92FF920F931F93CF93DF93C8
:1031D000EC01E0913102F0913202309709F446C0DF
:1031E00080912201882341F08091430387FF04C02E
:1031F0008881898385E088830280F381E02DCE0178
:1032000009958091D60282FF31C080FF04C08EE410
:1032100098E00E94380810E000E088E4E82E88E09A
:10322000F82E8091D60280FF0EC0FE01E00FF11F44
:1032300080811F928F93FF92EF920E94D1080F908E
:103240000F900F900F900F5F1F4F0830110549F737
:103250008091D60280FF0AC086E498E0DF91CF918A
:103260001F910F91FF90EF900C943808DF91CF9150
:103270001F910F91FF90EF90089520912F023091B0
:1032800030022817390771F09093300280932F0293
:10329000E0913102F0913202309721F00680F781FF
:1032A000E02D0994089520912D0230912E022817C7
:1032B000390771F090932E0280932D02E091310234
:1032C000F0913202309721F00084F185E02D0994CD
:1032D000089585B7806885BF85B7806885BF0895E4
:1032E000089508950C94701908950C9474190E940F
:1032F00069190E9471190C94721981E008950C9457
:103300007D190E9453260E94310C0E94E4260E94DF
:103310000D140C947519CF93C82F8091D60282FF9B
:103320001EC080FF1CC087E698E00E94380880918C
:10333000D60280FF14C01F92CF9382E698E09F933D
:103340008F930E94D1088091D6020F900F900F901A
:103350000F9080FF04C080E698E00E9438088C2F10
:10336000CF910C9451097F928F929F92AF92BF920E
:10337000CF92DF92EF92FF920F931F93CF93DF9341
:10338000CDB7DEB72A970FB6F894DEBF0FBECDBF1C
:103390000E94990C0E947F19882309F476C044E3A7
:1033A000A42E42E0B42E10E000E0702E802F0E9488
:1033B000DD0B6C01F501819091905F0188169906F3
:1033C00009F45DC08091D60281FD0E94E60B80E089
:1033D000EE24E394F12C8C249D2494012E213F2192
:1033E000232B09F446C08E837F82CE20DF2081E02C
:1033F000CD2809F480E088870E945C268160782FC0
:103400009A8789874E815F8168858A850E946A1ABA
:10341000000F111FF801EC5CFD4F80819181E826BF
:10342000F926F182E0820E94BC140E942E168111BE
:103430000E944A160E94D618909133028917B1F162
:103440000E94D618809333022A960FB6F894DEBFF6
:103450000FBECDBFDF91CF911F910F91FF90EF90E5
:10346000DF90CF90BF90AF909F908F907F900C9403
:103470008B198F5FEE0CFF1C8F3009F0AECF0F5F02
:103480001F4F0530110509F090CF8FEF89838A8394
:103490001B820E945C268160782F9D838C834981EA
:1034A0005A816B818D810E946A1ABDCF2A960FB610
:1034B000F894DEBF0FBECDBFDF91CF911F910F916A
:1034C000FF90EF90DF90CF90BF90AF909F908F9044
:1034D0007F900895CF93DF93CDB7DEB72B970FB6CC
:1034E000F894DEBF0FBECDBF4F83588769877A87B8
:1034F0008B871E821D8285E0FE013796DE011196C4
:1035000001900D928A95E1F749815A816B817C8106
:103510008D819E812B960FB6F894DEBF0FBECDBF76
:10352000DF91CF910C946D20FC01808191810C94EE
:103530002323CF93C82F882309F488C08238C1F48D
:103540000E94D61881FD82C089E30E9451230E9407
:10355000C2232FEF81EE94E0215080409040E1F7AC
:1035600000C0000089E30E945823CF910C94C2232D
:103570008338A1F40E94D61880FD68C083E50E94BC
:1035800051230E94C2232FEF81EE94E0215080400E
:103590009040E1F700C0000083E5E5CF8438A1F456
:1035A0000E94D61882FD52C087E40E9451230E94D7
:1035B000C2232FEF81EE94E0215080409040E1F74C
:1035C00000C0000087E4CFCF8CEF8C0F813AB8F4B5
:1035D0008C2F0E946B29811139C06C2F80911601AC
:1035E000909117010E940D25882329F08C2F0E94AD
:1035F00058230E94C2238C2F0E945123B6CF80E211
:103600008C0F883048F4C77081E001C0880FCA95DC
:10361000EAF70E947923A9CFEBE5EC0FE33040F401
:10362000F0E0EF53FE4F808190E0CF910C943D1974
:10363000C85AC73158F4EC2FF0E0EE0FFF1FED56DB
:10364000FE4F80819181CF910C945319CF910895B1
:10365000882309F44BC0823871F40E94D61881FF88
:1036600045C089E30E9451230E94C22389E30E943E
:1036700058230C94C223833859F40E94D61880FF33
:1036800035C083E50E9451230E94C22383E5EFCF1A
:10369000843859F40E94D61882FF28C087E40E941B
:1036A00051230E94C22387E4E2CF9CEF980F913A06
:1036B000F0F290E2980F983050F4877091E001C0DA
:1036C000990F8A95EAF7892F0E947F23D2CF9BE535
:1036D000980F933020F490E080E00C943D19885AC4
:1036E000873120F490E080E00C9453190895CF9333
:1036F000C82F0E94991AC93349F42FEF87EE93E03F
:10370000215080409040E1F700C000008C2FCF9105
:103710000C94281B882321F00E9479230C94C22347
:103720000895882321F00E947F230C94C2230895DA
:10373000BF92CF92DF92EF92FF920F931F93CF939E
:10374000DF936C01D62FC72FFC01058102950F7006
:10375000128111110E9496230E946F23E82E882364
:1037600091F01123D1F08C2F807F803421F080E202
:103770008D0F883090F082E00E940D240E946F230C
:1037800091E0E82EE926BC2EB2949FE0B922EB2D01
:10379000F0E0E652FB4C0C94AA33E12CF4CF0C2F52
:1037A0000F70C07F11F00295007F1123A9F0002354
:1037B00059F080E28D0F883010F0D11109C0802FB0
:1037C0000E9479230E94C2238D2F0E94991A14C04F
:1037D000802F0E948923F6CF8D2F0E94281B002363
:1037E00059F080E28D0F883010F0D1112CC0802F5D
:1037F0000E947F230E94C2232B2D2850330B24309C
:10380000310520F40E94D6180E945109EE2009F4D7
:1038100093C10E946B2380FD8FC1F60112820E942A
:1038200065230E94F121C6010E94BD1D0E946523EF
:10383000DF91CF911F910F91FF90EF90DF90CF908C
:10384000BF900C941222802F0E948F23D3CFFC2F85
:10385000FF70FF2EC07FC03219F0F29480EFF82283
:10386000DD2369F0D13049F1112391F1002351F1A9
:10387000F601858180FFA8CF8F70858323C0112337
:1038800081F0011106C00E94A9238F290E948A1B82
:10389000B3CF0130C1F70E94A9238F290E94AF2323
:1038A000ABCF011106C00E94B8238F2D0E94911B3F
:1038B000A3CF013009F4A0CFF6CF112329F00630B1
:1038C00008F09ACF8F2DE2CF053008F095CFEDCFDD
:1038D000002359F3D93349F4FFEF27EE33E0F150D9
:1038E00020403040E1F700C000008D2F0E94281BCF
:1038F00083CF8C2F86958695837069F0813009F08F
:103900007BCF8D2F9C2F9370111102C090E080E02F
:103910000E94531971CF8D2F9C2F9370111102C0EB
:1039200090E080E00E943D1967CF8C2F837009F0F2
:1039300041C0111161CF4D2F429546954770440FFC
:10394000440F0D2F0F7010E030E020E0042E04C073
:10395000000F111F221F331F0A94D2F760E070E09E
:10396000CB01D4FF0FC06FE070E080E090E004C0B6
:10397000660F771F881F991F4A95D2F7609570953B
:1039800080959095C695C695C370602B712B822B40
:10399000932BC23049F058F4C13019F00E94A32192
:1039A0002BCF0E94912128CF0E94B52125CF0E94C4
:1039B0008F2122CF8695112311F08C2F81708823BF
:1039C00009F41ACF4D2F429546954770440F440F86
:1039D0000D2F0F7010E030E020E0042E04C0000F27
:1039E000111F221F331F0A94D2F760E070E0CB0151
:1039F000D4FF0FC06FE070E080E090E004C0660F7D
:103A0000771F881F991F4A95D2F76095709580950A
:103A10009095C695C695C370602B712B822B932B06
:103A2000C23049F058F4C13019F00E946822E4CE47
:103A30000E945622E1CE0E947A22DECE0E94CB2145
:103A4000DBCECF70112329F08C2F0E94F1218D2F16
:103A50001DCF8D2F0E94911B8C2F0E941222CCCE45
:103A6000D23F89F160F4D03FC9F0D13F29F1112351
:103A700009F442C00111A8CE8C2F8F7121C0D33F11
:103A800039F1D43FA1F7112369F1CF718C2F0E9436
:103A9000F12163E08C2F0E94F823AECE112341F078
:103AA000053008F0A9CE8C2F8F710E943522A4CE4C
:103AB000063008F0A1CEF7CF8C2F8F71112369F259
:103AC0000E94F12199CE8C2F8F711123C9F3C5CF9C
:103AD000112329F08C2F8F710E94DC218DCE0E9442
:103AE000D7218ACE81E00E940D24023008F484CED2
:103AF00082E00E940D2480CE002359F0D93309F0D2
:103B0000F4CE8FEF97EEE3E081509040E040E1F794
:103B1000EACE8C2F8F71A1CF4C2F4F706D2FC60125
:103B20000E94D3090E94072167CE4C2F4F706D2F42
:103B3000C6010E94D60960CEDF91CF911F910F91EF
:103B4000FF90EF90DF90CF90BF9008950F931F9359
:103B5000CF93DF93EC01688179818A810E942D23C4
:103B60008C010E948C220E948E21B801CE01DF912F
:103B7000CF911F910F910C94981BCF93DF93EC0181
:103B80008B819C81892B29F08881998189238F3FA2
:103B900059F4DF91CF910895CE010E94A61DCE0168
:103BA000DF91CF910C943409CE010E9469098111F3
:103BB000F3CF0E946F23882361F38A81882349F31E
:103BC00082E0DF91CF910C940D240E9496230E94F5
:103BD000A6230E94C22390E080E00E943D1990E05D
:103BE00080E00C9453190E945F230C94E51D0E9401
:103BF00086230C94F31DE92FE295EF70E250EE302E
:103C000070F4F0E0E651FB4C0C94AA33803F19F0BD
:103C100020F4883E20F481E00895843FE1F380E0C1
:103C20000895883EC0F3813FD1F7F5CF93FB8827F5
:103C300080F908950E9423230C94FB1DCF93DF93FA
:103C400000D000D00F92CDB7DEB70F900F900F903D
:103C50000F900F90DF91CF910895CF93DF9300D015
:103C600000D000D0CDB7DEB726960FB6F894DEBFF1
:103C70000FBECDBFDF91CF9108951F93CF93DF93F8
:103C8000C0913F0216E0809140028C1304C0DF9186
:103C9000CF911F910895D0E01C9FF0011D9FF00D62
:103CA0001124EF5BFD4F40815181628173818481DA
:103CB00095810E942D1E2196C770E5CF409171021B
:103CC000509172026091730270917402809175023A
:103CD000909176020C942D1E1F93CF93DF938091C9
:103CE0007602807FA9F480917302882389F0809105
:103CF0003F02C09140026091710270917202A091E6
:103D00007402B0917502D62FD72316E0C81304C0F1
:103D1000DF91CF911F91089590E0109711F0DF3F50
:103D200019F401968770F2CF189F9001199F300DFA
:103D30001124F901EF5BFD4F41814713F2CF408120
:103D40004613EFCF42814111ECCF438154814A1B8E
:103D50005B0B483C510528F7809176028F7080619B
:103D600080937602F901EA5BFD4F80818F7080615C
:103D7000808381E792E00E94BD1DDF91CF911F916A
:103D80000C943D1EAF92BF92CF92DF92EF92FF92C2
:103D90000F931F93CF93DF93CDB7DEB761970FB625
:103DA000F894DEBF0FBECDBF8C0185E0F801DE01C7
:103DB0001D9601900D928A95E1F7F801408151819D
:103DC000E28081E7C82E82E0D82E60917402709163
:103DD00075026115710509F461C19091710220911C
:103DE0007202892F82238F3F09F458C1A380B480C7
:103DF000F0907302F501E61BF70BFF2009F4FCC0FD
:103E000080917602382F307FE83CF10508F0B2C08F
:103E1000311179C0FE2C251323C0941321C0E11069
:103E20001FC08F708061809376020E945E1EC60163
:103E30000E94BD1D80917602F80185838F2D6196C9
:103E40000FB6F894DEBF0FBECDBFDF91CF911F91AB
:103E50000F91FF90EF90DF90CF90BF90AF900895BB
:103E6000AB2829F0842F85238F3F09F033C180E0F0
:103E7000F82FF170DF2E80FF3CC080913F0220912F
:103E8000400236E0821315C04D875E878D859E8582
:103E90000E942323292F22952F702230F0F0243006
:103EA00018F59F70F1F0F8019581907FD1F4D12C35
:103EB0001EC090E0389FF001399FF00D1124EF5B98
:103EC000FD4F6181651306C06081641303C0628188
:103ED0006E110FC001968770D5CF9F7011F08823A7
:103EE00031F3805E883018F3C8010E94BD1DFD2C9F
:103EF000A5CFEE2009F4A2CF809176028160809355
:103F00007602F12C9BCF251306C0941304C0F80150
:103F1000EE2009F48DC04D875E878D859E850E94B9
:103F20001A1E882319F1EE2009F180917602803261
:103F300070F0209171023091720238872F831986B8
:103F4000BB86AA868C87CE0107960E94BD1D86E09F
:103F5000F801A1E7B2E001900D928A95E1F70E9485
:103F60006C1E0E945E1EFF24F39468CFC8010E945D
:103F7000BD1DF9CF311113C07A2DB98AA88A6E2DD3
:103F800089890E941E1E81E792E00E94BD1D86E085
:103F9000F60111928A95E9F70E945E1EB2CF2513B1
:103FA0000FC094130DC0E1100BC0F8018583C80148
:103FB0000E94BD1D86E0F60111928A95E9F73ECF79
:103FC0004D875E878D859E850E941A1E882371F21B
:103FD000EE2061F280917602803208F4B8CF209111
:103FE0007102309172023A8329831B82BD82AC82B6
:103FF0008E83CE010196A9CFE83CF10508F041C0BF
:10400000FE2CEE2009F4B2CF25132AC0941328C049
:104010008091760280FD1BC0982F907FC1F0F8013F
:104020008583903F31F0982F907F905F8F70892B20
:104030008583C8010E94BD1D86E0F801A1E7B2E0BA
:1040400001900D928A95E1F70E945E1EF7CE86E000
:10405000F801A1E7B2E001900D928A95E1F7EECE6A
:104060004D875E878D859E850E941A1E81116FCFB8
:1040700080917602816080937602C8010E94BD1D06
:10408000DDCE7A2DB98AA88A6E2D89890E941E1EDE
:1040900086E0F60111928A95E9F7D6CFEE2009F471
:1040A00065CF4D875E878D859E850E941A1EF82EEE
:1040B000882309F45BCF86E0F801A1E7B2E0019024
:1040C0000D928A95E1F781E792E00E94941A0E948E
:1040D0006C1EBACF81E08E25CBCE1F93CF93DF939A
:1040E000CDB7DEB72C970FB6F894DEBF0FBECDBFAD
:1040F0004F83588769877A878B879C87CE0107967D
:104100000E94C21E882369F08A859B85892B39F01D
:104110004F815885842F85238F3F09F071C016E0A9
:104120005FC086E0FE013796DE01119601900D9288
:104130008A95E1F78A859B85892B89F388859F81FC
:1041400089238F3F61F32091400230E0C90101963D
:104150008770992740913F024817190671F40E9411
:10416000F71D1092400210923F0286E0E1E7F2E074
:10417000DF011D928A95E9F7D2CF96E0929FD00198
:10418000939FB00D1124AF5BBD4FFE01319601909E
:104190000D929A95E1F7809340020E943D1EBFCF99
:1041A000819FC00111248F5B9D4F0E94C21E8823F6
:1041B000E9F0E0913F021E9FF0011124EF5BFD4FFB
:1041C0004081518162817381848195810E942D1E7D
:1041D00080913F0290E001968770992780933F027B
:1041E00080913F02909140028913DACF2C960FB64E
:1041F000F894DEBF0FBECDBFDF91CF911F91089520
:1042000069857A858B859C850E942D1E88CFEF92CB
:10421000FF920F931F93CF93DF938C01892B81F033
:10422000F12CEE24E394E8012196F801849184377F
:1042300070F4843008F05FC08130B1F08230A1F1B9
:10424000DF91CF911F910F91FF90EF9008958537E7
:1042500009F44CC008F43DC09CE7980F903780F7F4
:104260008F770E94281B49C00E5F1F4FFE0184916B
:1042700090E2980F983060F48770FE2D01C0FF0F18
:104280008A95EAF78F2F0E9499230E94C22302C0C9
:104290000E94991A8F2D815030F2EFE9FFE031979B
:1042A000F1F700C00000F7CF0E5F1F4FFE018491B1
:1042B00090E2980F983050F48770FE2D01C0FF0FE8
:1042C0008A95EAF78F2F0E949F23DFCF0E94281B39
:1042D000E1CF0E5F1F4FFE01C491C150D8F28FE9AC
:1042E0009FE00197F1F700C00000F7CF0E5F1F4F6E
:1042F000FE01F490CFCF0E94991A8E01CBCF089582
:104300000C947F210E9480216093AD027093AE02D5
:104310008093AF029093B0020C94E51D08950C9425
:1043200082210F931F930091AD021091AE02209154
:10433000AF023091B002602B712B822B932B1F9117
:104340000F910C9482210F931F930091AD02109155
:10435000AE022091AF023091B0026023712382231C
:1043600093231F910F910C9482210F931F9300911F
:10437000AD021091AE022091AF023091B0026027E1
:104380007127822793271F910F910C9482210C94FF
:104390007F210C94C7210E94C9216093A9027093C8
:1043A000AA028093AB029093AC020C94E51D60E0EE
:1043B00070E0CB010C94CB210F931F9341E050E0B0
:1043C00060E070E08A019B0104C0000F111F221FF2
:1043D000331F8A95D2F7C901B8011F910F910C9430
:1043E000CB210F931F9341E050E060E070E004C0E8
:1043F000440F551F661F771F8A95D2F78091A90237
:104400009091AA02A091AB02B091AC028A019B01EB
:10441000082B192B2A2B3B2BC901B8011F910F9197
:104420000C94CB210F931F9341E050E060E070E0CB
:1044300004C0440F551F661F771F8A95D2F7CB0122
:10444000BA0160957095809590950091A9021091A0
:10445000AA022091AB023091AC0260237123822327
:1044600093231F910F910C94CB210F931F9341E045
:1044700050E060E070E004C0440F551F661F771FD6
:104480008A95D2F78091A9029091AA02A091AB02DD
:10449000B091AC028A019B01082719272A273B27E4
:1044A000C901B8011F910F910C94CB210F931F9359
:1044B0000091A9021091AA022091AB023091AC02A6
:1044C000602B712B822B932B1F910F910C94CB217E
:1044D0000F931F930091A9021091AA022091AB02A1
:1044E0003091AC0260237123822393231F910F919B
:1044F0000C94CB210F931F930091A9021091AA0253
:104500002091AB023091AC0260277127822793275C
:104510001F910F910C94CB2108952FE0929F800D55
:104520001124982F977041E001C0440F9A95EAF743
:1045300086958695869595E0899FF0011124E95826
:10454000FD4F90E080E070E05191DF0111979B01F9
:10455000082E02C0369527950A94E2F7217021951E
:104560002527242325272C9301968530910561F773
:1045700008952FE0929F800D1124982F97708695B3
:104580008695869525E0829FF0011124E958FD4F1C
:1045900050E040E080E0219130E0092E02C03695E5
:1045A00027950A94E2F721703327042E01C0220FC9
:1045B0000A94EAF7822B4F5F5F4F4530510559F758
:1045C0000895BF92CF92DF92EF92FF920F931F93C5
:1045D000CF93DF938C01C090A902D090AA02E09003
:1045E000AB02F090AC028091AD029091AE02A0912E
:1045F000AF02B091B002C82AD92AEA2AFB2ACFE139
:10460000D0E0BC2ED701C6010C2E04C0B695A795EC
:10461000979587950A94D2F780FD0EC0219788F769
:10462000B12C8B2DDF91CF911F910F91FF90EF90C7
:10463000DF90CF90BF900895B8018C2F0E94F309AE
:10464000019761F3EECFCF93DF93EC010E94E1225B
:10465000BE01DF91CF910C94F3091F93CF93DF93A9
:10466000EB0190913E02992331F0CB01DF91CF9184
:104670001F910C942323882379F0CB010E94E1221F
:10468000182F682FCE010E948D22BE01812FDF914D
:10469000CF911F910C94F309CB010E94B922182FDE
:1046A000F4CF682F80911601909117010C94AF25DB
:1046B000682F80911601909117010C94BA25809172
:1046C0001601909117010C94C5258091B102859532
:1046D0008595859508958091B10287700895909190
:1046E000B102977081E009F480E008958091D502CD
:1046F00008959091D502892B8093D50208958095D5
:104700009091D50298239093D50208951092D502E6
:1047100008959091D402892B8093D40208958095B6
:104720009091D40298239093D40208951092D402C9
:1047300008959091D302892B8093D3020895809598
:104740009091D30298239093D30208951092D302AC
:1047500008958091B202089508950C94AC2390912D
:10476000B202981721F08093B2020C94AD23089501
:104770008091B202882329F01092B20280E00C945A
:10478000AD230895E0911601F09117018091D502B3
:104790008083E0911601F091170180819091D402FD
:1047A000892B8083E0911601F0911701808190910F
:1047B000D302892B80839091B202992381F0E091FA
:1047C0001601F09117018081892B80838091160159
:1047D000909117010E94F92481110E94B8238091C1
:1047E0001601909117010C94E21808950C94F5238A
:1047F00098E0899F90011124622B6093B1020E947E
:10480000F1218091B1028595859585950C94F623CB
:104810001092B10280E00C94F6239091B102809541
:1048200089238093B102282F277071F4282F082E36
:10483000000C330B9217130639F0859585958595F5
:104840000E9412220C94082408959093D50180931D
:10485000D4010895829590E09C01220F331F220F0E
:10486000331F2C7C95958795959587958373282B79
:1048700030E0C901880F991F8A7A359527952575EB
:10488000822B0895CF93DF93D92F0E942A24C82F1B
:104890008D2F0E942A249C2FDF91CF9108956FEFD6
:1048A0007FEF90E080E00C944B3490E080E00E9439
:1048B000273421E08C3E9E4F09F020E0822F08959E
:1048C00082E090E00C94193483E090E00C94193469
:1048D000CF9384E090E00E941934C82F81E290E0E9
:1048E0000E941934982F8C2FCF910895CF93C92F00
:1048F000682F84E090E00E942D346C2F81E290E0DC
:10490000CF910C942D34AB01BC018FE090E00C945E
:104910003F34AB01BC0183E190E00C943F3460E094
:1049200070E0CB010C94892460E070E0CB010E9420
:1049300083240C948F246CEE7EEF90E080E00E9444
:104940004B3460E082E090E00E942D3460E083E030
:1049500090E00E942D341092AD021092AE0210929F
:10496000AF021092B00260E084E090E00E942D342B
:1049700060E081E290E00E942D3460E085E090E00C
:104980000E942D3460E086E090E00E942D346FEFAD
:1049900087E090E00E942D3440E050E0BA0188E0CA
:1049A00090E00E943F3460E08DE090E00E942D3462
:1049B00040E050E0BA0188E190E00E943F3460E0BE
:1049C00087E190E00E942D3440E050E0BA018CE194
:1049D00090E00E943F3460E080E290E00E942D343D
:1049E0000C9494240C949B24682F8EE090E00C94FB
:1049F0002D34FC01329680912201882321F0809190
:104A000043039EE187FF96E080E0915008F408950B
:104A100021912223D1F38F5FF8CF662301F12091FA
:104A200022012223F1F02091430327FF1AC0462FD1
:104A30004695469546954E3190F4677021E030E0FA
:104A400002C0220F331F6A95E2F7840F911DFC010B
:104A5000828190E02823392381E0232B69F480E0D0
:104A60000895FC01329608962191261721F0E81747
:104A7000F907D1F7F4CF81E008959C01FC0132964B
:104A80009FEF80E04191461751F09F3F19F441118B
:104A900001C0982F8F5F8630A9F79F3F09F40895D2
:104AA000290F311D97FD3A95F90162830895FC01A4
:104AB000329608962191261303C0DF0111971C92AC
:104AC000E817F907B9F70895E62FE695E695E69514
:104AD000EE3170F4E80FF92FF11D677021E030E03E
:104AE00001C0220F6A95EAF78281822B82830895A2
:104AF0008091D60280FF0CC01F926F9388E998E0E6
:104B00009F938F930E94D1080F900F900F900F905A
:104B10000895E62FE695E695E695EE3178F4E80FF0
:104B2000F92FF11D677021E030E001C0220F6A9576
:104B3000EAF7209582812823228308958091D60266
:104B400080FF0CC01F926F938AE798E09F938F932A
:104B50000E94D1080F900F900F900F900895209110
:104B60002201222329F02091430327FD0C94642580
:104B70000C943D2520912201222329F0209143030A
:104B800027FD0C9489250C945725FC0132968091C1
:104B90002201882351F08091430387FF06C08EE1F4
:104BA000DF011D928A95E9F7089586E0F9CF08950F
:104BB00008950C94D8250E94D9258091490384300A
:104BC00049F11092D70288E190E020E40FB6F89402
:104BD000A895809360000FBE2093600080E00E9443
:104BE00051090E94D92583B7817F846083BF83B731
:104BF000816083BF7894889583B78E7F83BF0FB61B
:104C0000F894A8958091600088618093600010926C
:104C100060000FBE08950895CF930E94D7250E948B
:104C2000990C0E940B26C0E08C2F0E94DD0B892B73
:104C300031F4CF5FC530C1F780E0CF91089581E0B6
:104C4000FCCF08950C9421260E94F71D0E94D618CF
:104C50000E9451090C9422261F921FB61F92112404
:104C60008F939F93AF93BF938091D702811113C00D
:104C700080913F0390914003A0914103B091420382
:104C80004196A11DB11D80933F0390934003A093D3
:104C90004103B0934203BF91AF919F918F911F90B9
:104CA0001FBE1F90189582E084BD93E095BD9AEFDA
:104CB00097BD80936E0008952FB7F89480913F03BD
:104CC00090914003A0914103B09142032FBF0895FA
:104CD0002FB7F89460913F03709140038091410396
:104CE000909142032FBF08959C014FB7F894809193
:104CF0003F0390914003A0914103B09142034FBF05
:104D0000821B930B089578941F921FB61F92112453
:104D10008F939F93AF93BF9380913F0390914003F4
:104D2000A0914103B09142030196A11DB11D809352
:104D30003F0390934003A0934103B0934203BF917C
:104D4000AF919F918F911F901FBE1F90189581E08A
:104D50008093E00080E28093D8001092C9008FE138
:104D60009EE40197F1F700C0000087E090EBDC01C2
:104D70008093520390935303A0935403B09355032D
:104D800088E19CE00FB6F894A895809360000FBE70
:104D900090936000FFCF0C944F240E94990C2FEF4A
:104DA00086E791E0215080409040E1F700C000008C
:104DB0000E94990C80E00E94DD0B80FF04C00E94DD
:104DC000CB260C94A72608950E945524811102C079
:104DD0000E94F2240E9460248093D6020E946824DC
:104DE00090934403809343030E946424682F70E0EF
:104DF00090E080E00C948F21CF93C82F1F928F9367
:104E00008CEB98E09F938F930E94D10861E070E053
:104E100080E090E004C0660F771F881F991FCA9535
:104E2000D2F70E948F210F900F900F900F90CF918B
:104E30000C94F71DCF93DF93EBEFE80FEF3308F0FF
:104E400040C2F0E0E850FB4C0C94AA3387E19EE0AE
:104E50000E94380883E59DE00E9438080E9464247F
:104E60001F928F9380E59DE09F938F930E94D108BE
:104E70008EE49DE00E9438080E946024C82F8BE3D6
:104E80009DE00E9438081F92CF9386E39DE09F9398
:104E90008F930E94D10884E39DE00E9438088AE243
:104EA0009DE00E9438088C2F81701F928F9387E2BB
:104EB0009DE09F938F930E94D10885E29DE00E9420
:104EC00038088BE19DE00E943808C1FB882780F9F3
:104ED0001F928F9388E19DE09F938F930E94D1084A
:104EE00086E19DE00E9438088AE09DE00E94380833
:104EF000C2FB882780F91F928F9387E09DE09F93E4
:104F00008F930E94D10885E09DE00E9438088CEFC5
:104F10009CE00E943808C3FBCC27C0F91F92CF93B6
:104F200089EF9CE09F938F930E94D10887EF9CE0CC
:104F30000E9438080E946824EC0183EE9CE00E94E5
:104F40003808DF93CF938EED9CE09F938F930E9460
:104F5000D1088CED9CE00E94380883EC9CE00E9414
:104F600038088C2F81701F928F9380EC9CE09F9368
:104F70008F930E94D1088DB79EB780960FB6F89494
:104F80009EBF0FBE8DBF8EEB9CE00E94380887EA63
:104F90009CE00E943808C1FB882780F91F928F93FC
:104FA00084EA9CE09F938F930E94D10882EA9CE060
:104FB0000E94380880E99CE00E9438088D2F81709B
:104FC0001F928F938DE89CE09F938F930E94D1084E
:104FD0008BE89CE00E94380889E79CE00E94380832
:104FE000D695D1701F92DF9386E79CE09F938F93B5
:104FF0000E94D10884E79CE00E94380882E69CE089
:105000000E943808C2FB882780F91F928F938FE592
:105010009CE09F938F930E94D1088DE59CE00E94B5
:1050200038088BE49CE00E943808C3FB882780F98D
:105030001F928F9388E49CE09F938F930E94D108E6
:1050400086E49CE00E9438088CE39CE00E943808CB
:10505000C4FB882780F91F928F9389E39CE09F937C
:105060008F930E94D10887E39CE00E94380885E274
:105070009CE00E943808C5FB882780F91F928F9317
:1050800082E29CE09F938F930E94D10880E29CE093
:105090000E94380884E09CE00E943808C6FB8827FC
:1050A00080F91F928F9381E09CE09F938F930E94E1
:1050B000D1088DB79EB780960FB6F8949EBF0FBEED
:1050C0008DBF8FEF9BE00E94380887EF9BE00E9426
:1050D0003808C7FBCC27C0F91F92CF9384EF9BE021
:1050E0009F938F930E94D10882EF9BE00E94380823
:1050F0000F900F900F900F9081E01CC086E09EE013
:105100000E9438080E94F224F7CF80E49AE00E94BF
:105110003808F2CF8091D602807F8093D60285E254
:105120009AE00E94380882E09EE00E94380881E000
:105130008093D802DF91CF91089586EE9DE00E9482
:1051400038080E945A09D8CF9091D602892F8E7FB5
:1051500090FF81608093D60280FF03C08AED9DE0BE
:10516000D6CF8DEC9DE00E9438088091D602817FD9
:105170008093D602C1CF9091D602892F8D7F91FF67
:1051800082608093D60281FF08C080EC9DE00E947F
:1051900038088091D6028160EBCF82EB9DE0B7CFDB
:1051A0009091D602892F8B7F92FF84608093D602E4
:1051B00082FF03C083EA9DE0EACF83E99DE0A7CFA9
:1051C0009091D602892F877F93FF88608093D602C3
:1051D00083FF03C087E89DE0DACF8AE79DE097CFA1
:1051E00086E19AE00E94380887ED99E00E9438082D
:1051F0008FE999E00E9438088DE699E00E9438080E
:1052000082E499E084CF84E399E00E9438080E9408
:10521000D6181F928F938AE199E09F938F930E94F3
:10522000D108809122011F928F9383E099E09F9390
:105230008F930E94D1088091FD021F928F9380EF7F
:1052400098E09F938F930E94D1088091430387FB3E
:10525000882780F91F928F9388ED98E09F938F9312
:105260000E94D1080E9468269F938F937F936F932B
:1052700081EC98E09F938F930E94D1088DB79EB7E1
:1052800046960FB6F8949EBF0FBE8DBF35CF0E94D5
:10529000F71D90914303892F97FB87F980588093DE
:1052A000430387FF03C080E79DE031CF85E69DE0A3
:1052B0002ECF80E00E94FC261FCF8953FBCF8D515B
:1052C000F9CF83E69DE00E94380880E033CF80E08C
:1052D00008950C946729CF93C82F8091D802882312
:1052E00031F08130B1F01092D80280E010C0E0912E
:1052F0001601F091170180818232B9F78C2F0E943C
:10530000672981111CC08C2F0E941A278170CF91B0
:105310000895E0911601F09117018081823271F3B6
:105320008C2F0E946929811119C0C431C9F050F431
:10533000CB3061F086EB98E00E94380813C081E022
:1053400090E0E4CFC93261F0C833A1F785E29AE07A
:105350000E94380888EB98E00E94380881E0D6CF98
:105360001092D80280E0D2CF8091FC020895089577
:105370009FB7F8941092DB029FBF9091490394303D
:1053800009F048C02091E9002F703091EC00932F74
:10539000917030FD90E8922B23E02093E90020915A
:1053A000EB0020FF34C02091EE0027FF30C0209199
:1053B000D902222321F02091E80025FF28C0109275
:1053C000D90226E03091E80035FF14C08093F10047
:1053D0008091E80085FD27C08091E80080FFFCCF28
:1053E0008091E8008E778093E8009F709093E900A9
:1053F00080E0089530914903343049F43091EB0056
:1054000035FD05C0215041F481E08093D9029F70A1
:105410009093E9008FEF0895EFE9FFE03197F1F7FE
:1054200000C00000CFCF8FB7F89421E02093DB02BB
:105430008FBFDBCFCF93DF9300D00F92CDB7DEB716
:1054400090914903943019F589837B836A8382E0C4
:105450008093E9008FEF9091E800815095FD06C0A0
:1054600095ED9A95F1F700008111F5CF8091E80054
:1054700085FF0DC050E040E063E070E0CE01019692
:105480000E94A62C8091E8008E778093E8000F9010
:105490000F900F90DF91CF910895CF93DF93EC01A0
:1054A0000E94892C823011F0843031F4BE0184E0F6
:1054B000DF91CF910C941A2ADF91CF910895BC010E
:1054C00083E00C941A2ACF93DF93EC010E94892C7D
:1054D000823011F08430B9F5809122018823B1F136
:1054E0008091430387FF32C060E282E08093E9004D
:1054F0008FEF9091E800815095FD06C095ED9A954B
:10550000F1F700008111F5CF8091E80085FF1BC005
:105510008091220170E050E040E0811104C050E031
:1055200040E068E070E0CE010E94A62C8091E80087
:105530008E778093E80080E2FE01ACEDB2E001904E
:105540000D928A95E1F7DF91CF91089568E081E0AF
:10555000CDCF87E49EE00E943808809148038111F6
:1055600009C00E94362E0E94932E8091E200846032
:105570008093E200089583E49EE00E943808109230
:10558000480308958FE39EE00C9438088BE39EE077
:105590000C94380887E39EE00E9438080C94242677
:1055A0002091DA022F5F822F62E30E9468339923F1
:1055B00019F02093DA0208951092DA028091DB024A
:1055C0008823F1F0809149038430C1F49091E9007F
:1055D0009F702091EC00822F817020FD80E8892B44
:1055E00093E09093E9009091EB0090FF04C09091BC
:1055F000EE0097FD08C08F708093E9001092DB02E7
:1056000008951092F1009091E80095FDFACF9091E5
:10561000E80090FFF0CF9091E8009E779093E8002B
:10562000EACF42E061EC81E00E94B22D42E261ECFF
:1056300082E00E94B22D42E261EC83E00C94B22D34
:1056400080914B03833009F45FC030F48130C1F1A5
:10565000823009F49BC008958A3009F487C08B30EA
:1056600009F46DC0893009F04EC080914A0381323F
:1056700009F049C080914E0390914F03029708F0C2
:1056800042C08091E800877F8093E8008091E80025
:1056900082FF35C09091F3008091F200029729F4C7
:1056A0008091F1008B7F813021F48091F100809313
:1056B000FC028091E8008B778093E8000C94E62D43
:1056C00080914A03813AF9F48091E800877F8093C2
:1056D000E80080914E0390914F03892B61F460E2C2
:1056E0008CED92E070E00E94F52C8091E8008B77C1
:1056F0008093E800089560E090E080E0F3CF80912F
:1057000049038111C3CF089580914A03813AD9F7A3
:1057100080914E0390914F03892BA9F78091E80067
:10572000877F8093E8008091E80080FFFCCF809124
:1057300022018093F1008091E8008E77BDCF8091A7
:105740004A03813201F780914E0390914F03892BD8
:10575000D1F68091E800877F8093E8000E94E62DD3
:1057600080914C03809322010C94F71D80914A0391
:10577000813249F68091E800877F8093E8000E949B
:10578000E62D80914D038093FD02089580914A0398
:10579000813A09F0B8CF8091E800877F8093E800D4
:1057A0008091E80080FFFCCF8091FD02C2CF84B7DA
:1057B000877F84BF0FB6F894A895809160008861B8
:1057C00080936000109260000FBE80E890E00FB6FA
:1057D000F89480936100909361000FBE0E94771946
:1057E0000E94362E0E94932E8091E2008460809366
:1057F000E20088EB99E20E94252478940E941B31F4
:105800000E94811988E191E00E94D11886E29EE011
:105810000E94380880914903853019F00E94B3191D
:10582000F9CF82E29EE00E9438080E94DB25809139
:105830004703882379F30E940C26882359F30E949A
:10584000902CE8CF0C94242C292F332723303105BA
:1058500021F168F42130310509F449C022303105C5
:1058600009F44AC090E080E030E020E029C0213215
:10587000310581F122323105A9F76330710590F7C6
:10588000FB01EE0FFF1FE953FE4F208131816C5366
:105890007E4FFB01808190E013C0992781309105F4
:1058A00099F0009741F08230910589F00397D1F685
:1058B000EBE4FEE002C0E5E8FEE0849190E09F01A9
:1058C000FA01318320830895E1E7FEE0F6CFE1E5B8
:1058D000FEE0F3CF6330710528F6660F771FFB01FA
:1058E000E353FE4F2081318189E090E0E9CF82E1EE
:1058F00090E024EE3EE0E4CF8BE590E029E83EE046
:10590000DFCF80914903843011F482E0089581E073
:1059100008958091FE02811102C00C94812C08959B
:1059200080E189BD82E189BD09B400FEFDCF80918F
:10593000D8008F7D8093D8008091E00082608093B2
:10594000E0008091E00081FDFCCF0895AF92BF920E
:10595000CF92DF92FF920F931F93CF93DF936C014F
:10596000EB018A010E94052EF82E811123C001153A
:10597000110539F0F80180819181C81BD90BC80E3F
:10598000D91EB12CA12C2097A9F08091E80085FDAB
:1059900022C08091E8008E778093E8000115110500
:1059A000A1F0F80180819181A80EB91EB182A08278
:1059B00085E0F82E8F2DDF91CF911F910F91FF90F1
:1059C000DF90CF90BF90AF9008950E94052E88235E
:1059D000D1F2F82EEFCFF60181916F018093F100A3
:1059E0002197FFEFAF1ABF0ACECFFC018091500381
:1059F0009091510386179707A0F06115710529F45E
:105A00009091E8009E779093E80090E06115710511
:105A100051F4911108C08091E80082FF34C080E009
:105A20000895BC01F2CF809149038823C1F18530EC
:105A3000C1F18091E80083FD30C08091E80082FDD3
:105A4000EACF8091E80080FFE1CF8091F3002091C0
:105A5000F200382F6115710519F02830310558F022
:105A600091E02830310509F090E02091E8002E7790
:105A70002093E800CBCF81918093F10061507109B0
:105A80002F5F3F4FE7CF80914903882341F0853056
:105A900041F08091E80083FFBECF81E0089582E06D
:105AA000089583E00895FC01809150039091510383
:105AB00086179707A0F06115710529F48091E80019
:105AC0008E778093E80090E06115710551F4911193
:105AD00008C08091E80082FF35C080E00895BC01D5
